:020000040800F2
:100000000000082441100008490E0008510E0008A5
:10001000590E0008610E0008690E0008000000007B
:10002000000000000000000000000000710E000849
:100030007F0E0008000000008D0E00089B0E0008D7
:1000400095100008951000089510000895100008FC
:1000500095100008951000089510000895100008EC
:1000600095100008951000089510000895100008DC
:1000700095100008951000089510000895100008CC
:10008000951000089510000895100008A90E0008AA
:1000900095100008BD0E0008951000089510000886
:1000A000951000089510000895100008951000089C
:1000B000951000089510000895100008951000088C
:1000C000951000089510000895100008951000087C
:1000D000951000089510000895100008951000086C
:1000E0009510000895100008000000009510000809
:1000F000951000089510000895100008951000084C
:10010000951000089510000895100008951000083B
:10011000951000089510000895100008951000082B
:10012000951000089510000895100008951000081B
:10013000951000089510000895100008951000080B
:1001400000000000000000000000000000000000AF
:1001500095100008951000089510000895100008EB
:1001600095100008951000089510000895100008DB
:100170009510000895100008951000080000000078
:1001800095100008951000089510000895100008BB
:1001900095100008951000089510000895100008AB
:1001A000951000089510000895100008951000089B
:1001B000951000089510000895100008951000088B
:1001C000951000089510000895100008951000087B
:1001D000951000089510000895100008951000086B
:1001E000951000089510000895100008951000085B
:1001F000951000089510000895100008951000084B
:10020000951000089510000895100008951000083A
:10021000951000089510000895100008951000082A
:1002200095100008951000089510000800000000C7
:1002300095100008951000080000000095100008B7
:1002400095100008951000089510000895100008FA
:1002500095100008951000089510000895100008EA
:1002600095100008951000089510000895100008DA
:100270009510000895100008951000080000000077
:100280009510000895100008951000080000000067
:080290000000000095100008B9
:1002980010B5054C237833B9044B13B10448AFF3B8
:1002A80000800123237010BD4000002400000000DE
:1002B800E074000808B5034B1BB103490348AFF3CA
:1002C800008008BD0000000044000024E07400081D
:1002D80080B500AF00F088FC02F044FC00F022F882
:1002E80000F09EF800F08EF900F036F900F0B6F84C
:1002F8000A4803F0EBF800220121084803F07EFACF
:1003080002F064FB002000F0C3FE012000F0C0FEF4
:10031800034800F0D3FB00BFF7E700BF5C000024F0
:10032800BC01002480B59CB000AF07F124034C2227
:100338000021184607F095F83B1D20220021184699
:1003480007F08FF8022004F05FF900233B60324B7E
:100358009B69314A43F4404393612F4B9B6903F4F3
:1003680040433B602D4BDB6A2C4A43F00103D362C8
:100378002A4BDB6A03F001033B603B6800BF264B56
:100388009B6903F40053B3F5005FF8D103237B6244
:100398004FF48033BB6201233B6340237B6302231A
:1003A800BB640023FB6404233B653C237B65022379
:1003B800BB650523FB6502233B660C237B66002394
:1003C800BB660023FB6607F12403184604F056F9C0
:1003D8000346002B01D000F033FC3F237B6003234E
:1003E800BB600023FB6008233B6140237B61402303
:1003F800BB614FF48063FB6140233B623B1D0421DA
:10040800184604F095FD0346002B01D000F018FCB7
:1004180000BF7037BD4680BD004802580004005830
:1004280080B5B0B000AF3B46C0220021184607F0A7
:1004380018F84FF000424FF00003C7E900230023EB
:100448007B653B46184605F0A3F80346002B01D010
:1004580000F0F6FB00BFC037BD4680BD80B588B050
:1004680000AF3B4B3B4A1A60394B00229A60384B2D
:100478000022DA60364B00221A74354B00225A7477
:10048800334B00229A74324B0A225A61304B0422B1
:100498009A612F4B0422DA612D4B05221A622C4BEC
:1004A80001225A622A4B04229A62294B0122DA62FB
:1004B800274B01221A63264B00225A63244B002241
:1004C8009A63234B0022DA63214B01221A64204BE2
:1004D80004225A641E4B00229A641D4B0422DA64DB
:1004E8001B4B00221A651A4B04225A65184B00222E
:1004F8009A65174B0A22DA65154B0A221A66144BBD
:1005080000225A66124B04229A66114802F08AFDAC
:100518000346002B01D000F093FB00233B6000232F
:100528007B600223BB600123FB6000233B61002347
:100538007B613B461946064802F052FF0346002BF2
:1005480001D000F07DFB00BF2037BD4680BD00BF55
:100558005C00002400A0004080B500AF274B284A6B
:100568001A60264B4FF480025A60244B00229A608E
:10057800224B0722DA60214B00221A611F4B00220E
:100588005A611E4B4FF080629A611C4B0022DA615F
:100598001A4B00221A62194B00225A62174B00228A
:1005A8009A62164B0022DA62144B4FF080425A636B
:1005B800124B00229A63114B0022DA630F4B002280
:1005C8001A640E4B00225A640C4B00229A640B4B9F
:1005D8000022DA64094B00221A65084B00225A658A
:1005E800064B00229A65054806F040FB0346002B9F
:1005F80001D000F025FB00BF80BD00BFFC00002437
:100608000030014080B58AB000AF07F11403002222
:100618001A605A609A60DA601A61464BD3F8E03083
:10062800444A43F00403C2F8E030424BD3F8E030C8
:1006380003F004033B613B693E4BD3F8E0303D4A8D
:1006480043F08003C2F8E0303A4BD3F8E03003F0CF
:100658008003FB60FB68374BD3F8E030354A43F042
:100668000103C2F8E030334BD3F8E03003F0010364
:10067800BB60BB682F4BD3F8E0302E4A43F0080329
:10068800C2F8E0302B4BD3F8E03003F008037B606E
:100698007B6801224FF40051274803F081FF0122B3
:1006A8000221264803F07CFF00221C21234803F086
:1006B80077FF4FF400537B610123BB610023FB618B
:1006C80000233B6207F1140319461B4803F0A0FD01
:1006D8001E237B610123BB610023FB6100233B6276
:1006E80007F114031946154803F092FD4FF48E43A1
:1006F8007B610023BB610123FB6107F114031946E9
:100708000F4803F085FD4FF400437B610023BB6174
:100718000123FB6107F114031946084803F078FD2B
:1007280000214FF0007002F0DFFA00BF2837BD4605
:1007380080BD00BF0044025800080258000002585B
:10074800000C025880B58CB000AF786039607B68C7
:100758001A68144B1B689A4220D13B6803F00103C6
:10076800002B1BD007F108020F4B4021786802F0DC
:10077800D9FE0346002B01D000F062FABB680B4A91
:1007880013607B69DAB20A4B1A700A4B01221A709D
:10079800064B1B680449184600F00EF800BF3037B6
:1007A800BD4680BD5C000024A0010024AC010024EB
:1007B800B0010024B101002480B584B000AFF86016
:1007C800B960FB68B3F59B7F34D8FB68B3F5927FBB
:1007D800C0F01381FB68A3F59273122B00F20D8110
:1007E80001A252F823F000BF49080008030A0008D4
:1007F800030A0008030A0008030A0008030A00089D
:10080800030A0008030A0008030A0008030A00088C
:10081800030A0008030A0008650800089908000888
:10082800CB080008FD0800084B0900087D090008EE
:10083800E5090008FB68B3F5C47F00F0D580DCE06B
:10084800BB6803331B781A46BB6802331B781B024C
:100858009BB213449AB26E4B1A80CEE0BB68013348
:100868001B781A46BB681B781B029BB213449AB2CA
:10087800684B1A80BB6803331B781A46BB6802337F
:100888001B781B029BB213449AB2634B1A80B4E0E4
:10089800BB6801331B781A46BB681B781B029BB2E6
:1008A80013449AB25D4B1A80BB6803331B781A460F
:1008B8005B4B1A80BB6805331B781A46594B1A8064
:1008C8009BE0BB6801331B781A46BB681B781B0288
:1008D8009BB213449AB2544B1A80BB6803331B78FB
:1008E8001A46524B1A80BB6805331B781A46504B80
:1008F8001A8082E0BB6801331B781A46BB681B78F4
:100908001B029BB213449AB24A4B1A80BB6803334A
:100918001B781A46BB6802331B781B029BB2134430
:100928009AB2454B1A80BB6805331B781A46BB68D8
:1009380004331B781B029BB213449AB23F4B1A80B4
:100948005BE0BB6801331B781A46BB681B781B0247
:10095800134407EE903AB8EEE76B9FED2B5B86EEFB
:10096800057BFCEEC77BC7ED017A3B79DAB2344BE5
:100978001A7042E0BB6801331B781A46BB681B78C3
:100988001B029BB213449AB22E4B1A80BB680333E6
:100998001B781A46BB6802331B781B029BB21344B0
:1009A8009AB2284B5A80BB6805331B781A46BB6835
:1009B80004331B781B029BB213449AB2214B9A80D2
:1009C800BB6807331B781A46BB6806331B781B02C3
:1009D8009BB213449AB21B4BDA800EE0FA681A49AC
:1009E800B86800F037F808E0BB685A78174B1A70F7
:1009F800BB68DA78164B1A7000BF00BF1037BD46C7
:100A080080BD00BFAFF300800000000000E063403D
:100A18008601002496010024980100240000002487
:100A2800020000240400002406000024080000241A
:100A38000A0000249A01002488010024940100245B
:100A4800840100248C010024B40100249C010024AA
:100A58009D01002480B485B000AFF860B9607A6069
:100A6800FB681A78BB681A70BB680133FA68527859
:100A78001A70BB680233FA6892781A70BB6803333D
:100A8800FA68D2781A70BB680433FA6812791A7057
:100A9800BB680533FA6852791A70BB680633FA687E
:100AA80092791A70BB680733FA68D2791A7000BF56
:100AB8001437BD465DF8047B7047000080B584B0EC
:100AC80000AF78607B681B78FB734FF480714348F4
:100AD80003F04EFD03461A467B681A707B681B7844
:100AE8005B00DAB27B681A704FF400713B4803F080
:100AF8003FFD03461A467B681B781344DAB27B68CD
:100B08001A707B681B785B00DAB27B681A704FF446
:100B18008061324803F02CFD03461A467B681B7837
:100B28001344DAB27B681A707B681B785B00DAB210
:100B38007B681A704FF48041284803F019FD03467A
:100B48001A467B681B781344DAB27B681A707B6894
:100B58001B785B00DAB27B681A704FF400412048BA
:100B680003F006FD03461A467B681B781344DAB285
:100B78007B681A70FB7B1F2B2CD17B681B781E2B84
:100B880004D14FF40051174803F023FD7B681B780C
:100B98001D2B04D14FF40051124803F01AFD7B6855
:100BA8001B781B2B04D14FF400510E4803F011FDA4
:100BB8007B681B78172B04D14FF40051094803F0C8
:100BC80008FD7B681B780F2B04D14FF400510548B2
:100BD80003F0FFFC00BF1037BD4680BD000C025873
:100BE800000002580008025880B584B000AF3B46A8
:100BF80000221A605A609A60DA6002F09BF90123B9
:100C08003B7000237B7000237B601F233B7287238C
:100C18007B720023BB720023FB7201233B73012309
:100C28007B730023BB730023FB733B46184602F01B
:100C3800B9F9042002F096F900BF1037BD4680BD0F
:100C480080B400AF72B600BF00BFFDE780B483B0C8
:100C580000AF0A4BD3F8F430084A43F00203C2F855
:100C6800F430064BD3F8F43003F002037B607B6862
:100C780000BF0C37BD465DF8047B7047004402583E
:100C880080B5BAB000AF786007F1D40300221A60CB
:100C98005A609A60DA601A6107F11003C0220021D5
:100CA800184606F0DEFB7B681B682E4A934255D136
:100CB8004FF400424FF00003C7E904230023C7F8AC
:100CC800803007F11003184604F062FC0346002B3D
:100CD80001D0FFF7B5FF244BD3F8EC30224A43F498
:100CE8008073C2F8EC30204BD3F8EC3003F48073F7
:100CF800FB60FB681C4BD3F8E0301B4A43F0080349
:100D0800C2F8E030184BD3F8E03003F00803BB60BA
:100D1800BB680323C7F8D4300223C7F8D8300023B0
:100D2800C7F8DC300023C7F8E0300923C7F8E430FF
:100D380007F1D40319460D4803F06AFA002200218E
:100D4800132002F0C2F8132002F0D9F80022002183
:100D5800152002F0BAF8152002F0D1F800BFE837E4
:100D6800BD4680BD00A0004000440258000C025857
:100D780080B5BAB000AF786007F1D40300221A60DA
:100D88005A609A60DA601A6107F11003C0220021E4
:100D9800184606F066FB7B681B68264A934245D1D5
:100DA8004FF480524FF00003C7E904234FF4804307
:100DB8003B6707F11003184604F0EAFB0346002BD3
:100DC80001D0FFF73DFF1C4BD3F8F0301A4A43F42B
:100DD8008053C2F8F030184BD3F8F03003F4805346
:100DE800FB60FB68144BD3F8E030134A43F001036F
:100DF800C2F8E030104BD3F8E03003F00103BB60D9
:100E0800BB68E023C7F8D4300223C7F8D8300023E2
:100E1800C7F8DC300023C7F8E0300523C7F8E43012
:100E280007F1D4031946054803F0F2F900BFE83783
:100E3800BD4680BD00300140004402580000025801
:100E480080B400AF00BFFDE780B400AF00BFFDE78E
:100E580080B400AF00BFFDE780B400AF00BFFDE77E
:100E680080B400AF00BFFDE780B400AF00BFBD464F
:100E78005DF8047B704780B400AF00BFBD465DF8E5
:100E8800047B704780B400AF00BFBD465DF8047BAB
:100E9800704780B500AF01F0D7FE00BF80BD0000ED
:100EA80080B500AF024802F023FD00BF80BD00BF3F
:100EB8005C00002480B500AF024802F019FD00BFB5
:100EC80080BD00BF5C00002480B400AF434BD3F862
:100ED8008830424A43F47003C2F88830404B1B689C
:100EE80003F00F03062B07D83D4B1B6823F00F03B5
:100EF8003B4A43F0070313603A4B1B68394A43F0F7
:100F080001031360374B00221A61364B1A683549C2
:100F1800354B13400B60324B1B6803F00803002B62
:100F280007D02F4B1B6823F00F032D4A43F007030C
:100F380013602C4B00229A612A4B0022DA61294B5C
:100F480000221A62274B294A9A62264B284ADA62FB
:100F5800244B284A1A63234B00225A63214B254A03
:100F68009A63204B0022DA631E4B224A1A641D4BF7
:100F780000225A641B4B1B681A4A23F4802313600F
:100F8800184B00221A661C4B1A681C4B1340B3F10D
:100F9800005F02D21A4B01221A60124BD3F8D430E8
:100FA80003F48053002B13D10E4BD3F8D4300D4AE1
:100FB80043F48053C2F8D430124B43F2D2021A6081
:100FC800084BD3F8D430074A23F48053C2F8D430FE
:100FD80000BFBD465DF8047B704700BF00ED00E030
:100FE80000200052004402587FEDF6EA0002020297
:100FF8000000FF01800201010010005C0000FFFFFB
:10100800088100510040005280B400AF094BDB68F2
:10101800084A43F00203D36000BF064B5B6803F441
:101028000053002BF9D000BF00BFBD465DF8047B1C
:10103800704700BF00480258DFF838D0FFF7E4FFD8
:10104800FFF742FF0C480D490D4A002302E0D4582F
:10105800C4500433C4188C42F9D30A4A0A4C0023FA
:1010680001E013600432A242FBD306F003FAFFF753
:101078002FF97047000008240000002440000024D5
:10108800E47A000840000024D0010024FEE70000B4
:10109800B0B584B002AF0346FB71FB79002B02D1D7
:1010A800002001F005F9324B1B88184600F0FCFBC4
:1010B80003464FF491724FF4A071184600F078F887
:1010C8002C4B1B781E22B421184600F0C3F92A4B7A
:1010D80018882A4B19882A4B1C882A4B1D882A4BAA
:1010E8001B882A4A1288019200932B46224600F058
:1010F8004FFA274B1878274B19784FF482734622FA
:1011080000F0EAFBFB7900930023002278214FF4DA
:10111800B47000F0C3FC204B1A88FB790A214FF405
:10112800B47000F0E5FC1D4B1A88FB790A214FF4D6
:10113800D27000F063FD1A4AF0214FF48C7000F071
:10114800E3FD184B1A88FB794FF48C71642000F08A
:10115800AFFE154B1A88154B1988FB7900930B467F
:10116800C821642000F02AFF00BF0837BD46B0BD83
:101178009A010024840100240000002402000024B5
:101188000400002406000024080000240A000024AB
:101198009C0100249D01002488010024860100246C
:1011A8008C01002494010024960100249801002455
:1011B80090B587B002AF0346FB710B46BB80134660
:1011C8007B80984B93F9003097F907209A4200F0FA
:1011D8002481BB880F3398B27B88193B99B2BB88AE
:1011E800A5339AB27B88093B9BB201240194002461
:1011F800009401F02CF98B4AFB79137097F90730AA
:10120800092B00F2B78001A252F823F03D12000822
:101218005D1200087D1200089D120008BD1200082A
:10122800DD120008FD1200081D1300083D13000818
:101238005D130008BB880F3398B27B88193B99B2BD
:1012480001230193002300934FF47843764A01F079
:1012580049FBBFE0BB880F3398B27B88193B99B232
:1012680001230193002300934FF478436F4A01F060
:1012780039FBAFE0BB880F3398B27B88193B99B232
:1012880001230193002300934FF47843684A01F047
:1012980029FB9FE0BB880F3398B27B88193B99B232
:1012A80001230193002300934FF47843614A01F02E
:1012B80019FB8FE0BB880F3398B27B88193B99B232
:1012C80001230193002300934FF478435A4A01F015
:1012D80009FB7FE0BB880F3398B27B88193B99B232
:1012E80001230193002300934FF47843534A01F0FC
:1012F800F9FA6FE0BB880F3398B27B88193B99B233
:1013080001230193002300934FF478434C4A01F0E2
:10131800E9FA5FE0BB880F3398B27B88193B99B232
:1013280001230193002300934FF47843454A01F0C9
:10133800D9FA4FE0BB880F3398B27B88193B99B232
:1013480001230193002300934FF478433E4A01F0B0
:10135800C9FA3FE0BB880F3398B27B88193B99B232
:1013680001230193002300934FF4FC63374A01F0F3
:10137800B9FA2FE0BB880F3398B27B88193B99B232
:1013880001230193002300934FF6A043304A01F054
:10139800A9FA0923FB6019E0FB689BB21A461201FF
:1013A800D31A9AB2BB88134498B2FB68002B02DDAB
:1013B8004FF4784301E04FF4FC63798801220092EE
:1013C800062201F088F8FB68013BFB60FB68002BF4
:1013D800E2DC23E00923BB601BE0BB689BB21A4632
:1013E8001201D31A9AB2BB88134498B297F90730FE
:1013F800BA689A4202DD44F2C81301E04FF4FC6374
:10140800798801220092062201F065F8BB68013B49
:10141800BB60BB68002BE0DC00E000BF1437BD46B2
:1014280090BD00BF14000024F87400080875000877
:1014380018750008287500083875000848750008F0
:1014480058750008687500087875000888750008E0
:101458009875000890B587B002AF0346FB710B463C
:10146800BB8013467B80474BDB78002B15D0BB88AD
:10147800693B98B27B880A3B99B2BB8837339AB2EA
:101488007B886E339BB2002401944FF6FF7400945E
:1014980000F0DDFF3B4B0022DA70FA793A4BA3FBF0
:1014A8000213D9080B469B000B445B00D31AFB734D
:1014B800344B1B78FA7B9A420FD0FB7B3033DAB27D
:1014C8007988B88806230193002300934FF6FF73A9
:1014D80001F014F92B4AFB7B1370FB792A4AA2FB13
:1014E8000323DB08FB71FA79274BA3FB0213D90806
:1014F8000B469B000B445B00D31AFB73214B5B78B4
:10150800FA7B9A4211D0BB88323B98B2FB7B3033CE
:10151800DAB2798806230193002300934FF6FF730C
:1015280001F0ECF8174AFB7B5370FB79164AA2FBD3
:101538000323DB08FB71FA79134BA3FB0213D908C9
:101548000B469B000B445B00D31AFB730D4B9B7837
:10155800FA7B9A4211D0BB88643B98B2FB7B30334C
:10156800DAB2798806230193002300934FF6FF73BC
:1015780001F0C4F8034AFB7B937000BF1437BD46E3
:1015880090BD00BF18000024CDCCCCCC00000000DA
:1015980090B58FB002AF0446084611461A46234656
:1015A800FB800346BB800B467B8013463B80B24BD7
:1015B8001B78002B3AD0002301934FF6FF7300935A
:1015C8004FF4907319221421052000F040FF0023E6
:1015D80001934FF6FF7300934FF490733222142156
:1015E8001E2000F034FF4FF47843009328231F2275
:1015F8002821182000F0AEFE4FF4784300934FF4F2
:1016080086731F224FF48671182000F0A3FE012371
:101618000193002300934FF6FF73984A4FF4967195
:10162800092001F05FF9944B00221A707B881B0394
:10163800934A82FB03125211DB17D31A9AB2914BC9
:101648001A80BB881B038E4A82FB03125211DB17D8
:10165800D31A9AB28C4B1A80B7F844301B03884AC5
:1016680082FB03125211DB17D31A9AB2874B1A80E6
:10167800B7F840301B03824A82FB03125211DB1772
:10168800D31A9AB2824B1A80FB887E4A12889B1A18
:1016980007EE903AB8EEE75B7B4B1B881A46794B0E
:1016A8001B88D31A07EE903AB8EEE76B85EE067BF7
:1016B80087ED0A7B97ED0A7B9FED696B27EE067B2A
:1016C8009FED696B36EE477B87ED087B97ED087BCE
:1016D800B3EE066BB4EEC67BF1EE10FA03D54FF00D
:1016E80000026C4B0EE097ED087B9FED616BB4EE4A
:1016F800C67BF1EE10FA03DD5DA3D3E9002301E018
:10170800D7E90823C7E9082397ED087BFCEEC77BD8
:1017180017EE903AFB83604B1B88FA8B9A420ED2E5
:101728005D4B1B88F98B012201924FF6FF720092E4
:101738001722072000F08BFE574AFB8B1380564B6D
:101748001B88FA8B9A420FD9534B1988FB8B013BA4
:101758009BB201220192002200921722072000F07A
:1017680076FE4D4AFB8B13803B88484A12889B1AA9
:1017780007EE903AB8EEE75B454B1B881A46434B99
:101788001B88D31A07EE903AB8EEE76B85EE067B16
:10179800F7EEC77BC7ED067AD7ED067A9FED3F7A5D
:1017A80067EE877A9FED3E7A77EE677AB7EEE77A4B
:1017B80087ED047B97ED047BB3EE066BB4EEC67B36
:1017C800F1EE10FA03D54FF00002324B0EE097ED20
:1017D800047B9FED276BB4EEC67BF1EE10FA03DDB8
:1017E80023A3D3E9002301E0D7E90423C7E90423AD
:1017F80097ED047BFCEEC77B17EE903AFB81294BF3
:101808001B88FA899A420ED2264B1B88F989012235
:1018180001924FF6FF7200923022202000F017FE4E
:10182800204AFB8913801F4B1B88FA899A4210D9DA
:101838001C4B1988FB89013B9BB2012201920022B3
:1018480000923022202000F002FE164AFB89138005
:1018580000BF00BF3437BD4690BD00BFAFF3008066
:101868000000000000806C400000000000C07040D4
:101878000000000000E071401C000024A87500086A
:10188800D34D6210BE010024C0010024C20100240F
:10189800C4010024000036401E00002400006443F8
:1018A800000086432000002480B483B000AF0346C4
:1018B800FB80FB88A3F2EA53FB80FB88054AA2FB66
:1018C80003231B099BB25BB218460C37BD465DF873
:1018D800047B7047813FE00F90B585B002AF0446A6
:1018E800084611461A462346FB710346BB710B4650
:1018F800BB8013467B80244B1B78FA799A421BD015
:101908007988B888012300934FF47843052200F0C2
:10191800E2FD7B880C3399B2FB79002B02D04FF49F
:10192800784300E00023B88801220092052200F0E5
:10193800D2FD154AFB791370BB880C33BB80134B5F
:101948001B78BA799A421BD07988B888012300930A
:101958004FF6FF73052200F0BEFD7B880C3399B269
:10196800FB79002B02D04FF6FF7300E00023B88804
:1019780001220092052200F0AEFD044ABB791370E3
:1019880000BF0C37BD4690BDC6010024C701002426
:1019980090B585B002AF0446084611461A4623465C
:1019A800FB800346BB800B467B8013463B80FA884E
:1019B800394BA3FB0213D9080B469B000B445B0071
:1019C800D31A9BB2DAB23C887988B8883B7F0193F6
:1019D8003B8B0093234600F0D1FFFB882E4AA2FBE5
:1019E8000323DB08FB80BB880A3B98B2FA882A4BA2
:1019F800A3FB0213D9080B469B000B445B00D31AC8
:101A08009BB2DAB23C8879883B7F01933B8B009389
:101A1800234600F0B3FFFB881F4AA2FB0323DB0821
:101A2800FB80BB88143B98B2FA881B4BA3FB0213BC
:101A3800D9080B469B000B445B00D31A9BB2DAB261
:101A48003C8879883B7F01933B8B0093234600F0C9
:101A580095FFFB88104AA2FB0323DB08FB80BB88A9
:101A68001E3B98B2FA880C4BA3FB0213D9080B460D
:101A78009B000B445B00D31A9BB2DAB23C8879888E
:101A88003B7F01933B8B0093234600F077FF00BF19
:101A98000C37BD4690BD00BFCDCCCCCC90B585B041
:101AA80002AF0446084611461A462346FB80034601
:101AB800BB800B467B8013463B803B7E002B08D1C6
:101AC800B988F888002300934FF6FF73502200F07E
:101AD80002FD054A7B881380044A3B88138000BFB7
:101AE8000C37BD4690BD00BFC8010024CA010024C0
:101AF80090B585B002AF0446084611461A462346FB
:101B0800FB800346BB800B467B8013467B707B784B
:101B1800002B34D0FB8808339AB2BB880F339BB2B2
:101B2800B988F888002401944FF6FF74009400F0F7
:101B38008EFCFB88023398B2BB88013B99B2FB88C4
:101B480006339AB2BB88023B9BB2002401944FF63D
:101B5800FF74009400F07BFCFB88013398B2BB88CB
:101B68000B3399B2FB8807339AB2BB880E339BB20A
:101B7800012401944FF4FC64009400F068FC7B8815
:101B88001D4AB2F900209B1A13F1040F06DB7B886B
:101B9800194AB2F900209B1A042B28DDFB882C3344
:101BA80099B27B88B3F5616F07D97B8841F25302FC
:101BB800934202D84FF6FF7301E04FF47843BA8896
:101BC80078880124019400240094FFF7E1FEFB8843
:101BD800173398B2BB880D339BB24FF6FF72194684
:101BE80000F07AFBB7F90220034B1A8000E000BF2F
:101BF8000C37BD4690BD00BF2200002490B585B0CB
:101C080002AF0446084611461A462346FB8003469F
:101C1800BB800B467B8013467B707B78002B33D0D0
:101C2800FB8808339AB2BB880F339BB2B988F8880F
:101C3800002401944FF6FF74009400F008FCFB8820
:101C4800023398B2BB88013B99B2FB8806339AB23B
:101C5800BB88023B9BB2002401944FF6FF740094AA
:101C680000F0F5FBFB88013398B2BB88033399B2C7
:101C7800FB8807339AB2BB880E339BB201240194C8
:101C88001F24009400F0E3FB7B881E4AB2F9002071
:101C98009B1A13F1040F06DB7B881A4AB2F900205D
:101CA8009B1A042B29DDFB882C3399B27B8841F2DF
:101CB800F812934207D97B8841F21752934202D80F
:101CC8004FF6FF7301E04FF47843BA88788801240F
:101CD800019400240094FFF75BFEFB882B3398B235
:101CE800BB880D339BB24FF6FF72194600F0F4FA29
:101CF800B7F90220034B1A8000E000BF0C37BD463D
:101D080090BD00BF2400002480B584B002AF034614
:101D18003A60FB800B46BB80604B1A883B681B8887
:101D28009A4223D0FB88323B98B23B681B88002B31
:101D380002D14FF4FC6301E04FF47843B9880122E3
:101D4800019200930023564A00F0CCFD3B681888A6
:101D5800BA88F98801230193002300934FF6FF7393
:101D6800FFF716FE3B681A884C4B1A804B4B5A8873
:101D78003B6802331B889A4229D0FB88323B98B2D1
:101D8800BB88103399B23B6802331B88002B02D101
:101D98004FF4FC6301E04FF4784301220192009371
:101DA8000023404A00F09EFD3B6802331888BB8838
:101DB80010339AB2F98801230193002300934FF658
:101DC800FF73FFF7E5FD3B685A88344B5A80334B65
:101DD8009A883B6804331B889A4229D0FB88323B97
:101DE80098B2BB88203399B23B6804331B88002B18
:101DF80002D14FF4FC6301E04FF4784301220192D1
:101E080000930023284A00F06DFD3B6804331888CE
:101E1800BB8820339AB2F9880123019300230093E9
:101E28004FF6FF73FFF7B4FD3B689A881B4B9A8007
:101E38001A4BDA883B6806331B889A4229D0FB88FC
:101E4800323B98B2BB88303399B23B6806331B8863
:101E5800002B02D14FF4FC6301E04FF478430122D8
:101E6800019200930023114A00F03CFD3B680633C1
:101E78001888BB8830339AB2F9880123019300236C
:101E880000934FF6FF73FFF783FD3B68DA88034B37
:101E9800DA8000BF0837BD4680BD00BF2800002497
:101EA800B0750008B4750008B8750008BC7500085E
:101EB80090B585B002AF0446084611461A46234637
:101EC800FB800346BB800B467B8013467B707B7888
:101ED800002B33D0FB8808339AB2BB880F339BB2F0
:101EE800B988F888002401944FF6FF74009400F034
:101EF800AEFAFB88023398B2BB88013B99B2FB88E3
:101F080006339AB2BB88023B9BB2002401944FF679
:101F1800FF74009400F09BFAFB88013398B2BB88E9
:101F2800033399B2FB8807339AB2BB880E339BB24E
:101F3800012401941F24009400F089FA7B881E4A2A
:101F4800B2F900209B1A13F1090F06DB7B881A4AA5
:101F5800B2F900209B1A092B29DDFB882C3399B292
:101F68007B8840F6FC02934207D97B8841F25302F2
:101F7800934202D84FF6FF7301E04FF47843BA88D2
:101F880078880124019400240094FFF701FDFB8860
:101F9800213398B2BB880D339BB24FF6FF721946B6
:101FA80000F09AF9B7F90220034B1A8000E000BF4D
:101FB8000C37BD4690BD00BF3000002490B585B0F9
:101FC80002AF0446084611461A462346FB800346DC
:101FD800BB800B467B8013463B807B88374AB2F92F
:101FE80000209B1A13F1090F06DB7B88334AB2F9EC
:101FF80000209B1A092B25DDFB882C3399B27B889E
:10200800002B06D07B88B3F57A6F02D24FF6FF73A8
:1020180001E04FF47843BA887888012401940024B9
:102028000094FFF7B5FCFB88173398B2BB880D33D3
:102038009BB24FF6FF72194600F04EF9B7F902202D
:102048001E4B1A803B881E4AB2F900209B1A13F1D6
:10205800090F06DB3B881A4AB2F900209B1A092BA4
:1020680027DDFB882C3399B2BB8810339AB23B88A2
:10207800002B06D03B88B3F57A6F02D24FF6FF7378
:1020880001E04FF478433888012401940024009437
:10209800FFF77EFCFB88173398B2BB881D339BB2D1
:1020A8004FF6FF72194600F017F9B7F90020044BF4
:1020B8001A8000BF0C37BD4690BD00BF3200002417
:1020C8003400002480B500AF012210210B4802F033
:1020D80067FA642000F0D8FD00221021074802F0BA
:1020E8005FFA642000F0D0FD01221021034802F0BD
:1020F80057FA642000F0C8FD00BF80BD00000258F8
:1021080080B582B000AF0346FB71002208210B485E
:1021180002F046FA00220421084802F041FAF91DAB
:1021280064230122064804F0C5FE01220421034865
:1021380002F036FA00BF0837BD4680BD00000258DD
:10214800FC00002480B582B000AF0346FB71012279
:1021580008210B4802F024FA00220421084802F062
:102168001FFAF91D64230122064804F0A3FE012288
:102178000421034802F014FA00BF0837BD4680BDA9
:1021880000000258FC00002490B583B000AF04465C
:10219800084611461A462346FB800346BB800B4679
:1021A8007B8013463B802A20FFF7AAFFFB881B0A87
:1021B8009BB2DBB21846FFF7C5FFFB88DBB21846B7
:1021C800FFF7C0FF7B881B0A9BB2DBB21846FFF7FC
:1021D800B9FF7B88DBB21846FFF7B4FF2B20FFF767
:1021E8008FFFBB881B0A9BB2DBB21846FFF7AAFF1A
:1021F800BB88DBB21846FFF7A5FF3B881B0A9BB2DA
:10220800DBB21846FFF79EFF3B88DBB21846FFF7A4
:1022180099FF2C20FFF774FF00BF0C37BD4690BD17
:1022280090B585B000AF0446084611461A462346C5
:10223800FB800346BB800B467B8013463B807A8835
:10224800FB88D31A01333988BA888A1A013202FB0B
:1022580003F3BB603B887A88B988F888FFF794FF56
:1022680001220821104802F09BF9002204210E489F
:1022780002F096F90023FB6009E06423022207F1CB
:1022880020010A4804F016FEFB680133FB60FA6877
:10229800BB689A42F1D301220421034802F080F975
:1022A80000BF1437BD4690BD00000258FC00002452
:1022B80080B584B002AF0346FB80FB8800934FF4DF
:1022C800A0734FF4F07200210020FFF7A9FF00BFB0
:1022D8000837BD4680BD000080B584B000AF034616
:1022E800FB800B46BB8013467B80FB88B3F5F07FF1
:1022F80028D2BB88B3F5A07F24D2BB88FA88B988D6
:10230800F888FFF741FF01220821104802F048F938
:10231800002204210D4802F043F97B881B0A9BB276
:10232800DBB23B737B88DBB27B7307F10C01642360
:102338000222074804F0BEFD01220421034802F0EE
:102348002FF900E000BF1037BD4680BD00000258DD
:10235800FC00002490B587B000AF0446084611463B
:102368001A462346FB800346BB800B467B801346F8
:102378003B807A88FB88D31A9BB23B823A88BB8819
:10238800D31A9BB2FB81B7F91030002B01DD012372
:1023980001E04FF0FF33BB81B7F90E30002B01DDB0
:1023A800012301E04FF0FF337B81B7F91030002B98
:1023B800B8BF5B429BB23B82B7F90E30002BB8BF67
:1023C8005B429BB2FB81FB88FB82BB88BB823A8A5B
:1023D800FB89D31A9BB27B82FB8AB98A3A8D18464D
:1023E800FFF77AFFB7F916207B889A4204D1B7F92C
:1023F80014203B889A4225D07B8A5B009BB23B81A4
:10240800B7F90820B7F90E305B429A4209DD7A8A9B
:10241800FB89D31A9BB27B82FA8ABB8913449BB28D
:10242800FB82B7F90820B7F910309A42D4DA7A8AD1
:102438003B8A13449BB27B82BA8A7B8913449BB242
:10244800BB82C9E700BF00BF1C37BD4690BD90B531
:1024580085B002AF0446084611461A462346FB805B
:102468000346BB800B467B8013463B803B7F002B9B
:1024780009D03C887A88B988F8883B8B0093234632
:10248800FFF7CEFE23E0BC887A88B988F8883B8BB2
:1024980000932346FFF75EFF3C887A883988F888DE
:1024A8003B8B00932346FFF755FF3C88FA88B98891
:1024B800F8883B8B00932346FFF74CFF3C887A88CB
:1024C800B98878883B8B00932346FFF743FF00BF0A
:1024D8000C37BD4690BD90B587B002AF044608469C
:1024E80011461A462346FB800346BB800B467B8079
:1024F80013463B800023FB817B88BB817B885B0084
:102508009BB2C3F103039BB27B81EBE097F82030C9
:10251800002B5FD0FB89FA88D31A98B2BA89BB8896
:10252800134499B2FA89FB8813449CB2BA89BB88D0
:1025380013449AB23B88009313462246FFF70AFFDA
:10254800FB89FA88D31A98B2BB89BA88D31A99B288
:10255800FA89FB8813449CB2BB89BA88D31A9AB209
:102568003B88009313462246FFF7F4FEB7F90E2086
:10257800B7F90C309A4200F08D80BB89FA88D31ADB
:1025880098B2FA89BB88134499B2BA89FB88134474
:102598009CB2FA89BB8813449AB23B8800931346CD
:1025A8002246FFF7D7FEBB89FA88D31A98B2FB896F
:1025B800BA88D31A99B2BA89FB8813449CB2FB89AA
:1025C800BA88D31A9AB23B88009313462246FFF77B
:1025D800C1FE5FE0FA89FB88134498B2BA89BB88C8
:1025E80013449BB23A881946FFF776FEFB89FA88AE
:1025F800D31A98B2BA89BB8813449BB23A88194651
:10260800FFF76AFEFA89FB88134498B2BB89BA8837
:10261800D31A9BB23A881946FFF75EFEFB89FA88FF
:10262800D31A98B2BB89BA88D31A9BB23A8819468A
:10263800FFF752FEBA89FB88134498B2FA89BB881F
:1026480013449BB23A881946FFF746FEBB89FA88BD
:10265800D31A98B2FA89BB8813449BB23A881946B0
:10266800FFF73AFEBA89FB88134498B2FB89BA8807
:10267800D31A9BB23A881946FFF72EFEBB89FA880F
:10268800D31A98B2FB89BA88D31A9BB23A881946EA
:10269800FFF722FEB7F90E309BB201339BB2FB81E4
:1026A800B7F90A30002B09DAFB899B009AB27B89BB
:1026B80013449BB206339BB27B8113E0B7F90E201B
:1026C800B7F90C30D31A9BB29B009AB27B8913449A
:1026D8009BB20A339BB27B81B7F90C309BB2013BAA
:1026E8009BB2BB81B7F90E20B7F90C309A427FF73D
:1026F8000DAF00BF00BF1437BD4690BD90B587B081
:1027080002AF0446084611461A462346FB80034694
:10271800BB800B46FB7013463B80FB782F2B40F2A7
:10272800DA80FB787A2B00F2D680FB78303BFB709E
:10273800FB781B016A4A1344BB600023FB73C5E0A6
:102748000023BB73BBE0FB7BBA6813441B781A46B3
:10275800BB7BC3F1070342FA03F303F00103002B29
:1027680053D097F82430012B40D9BB7B9AB297F805
:1027780024309BB212FB03F39AB2FB88134498B23D
:10278800FB7B9AB297F824309BB212FB03F39AB200
:10279800BB88134499B2BB7B9AB297F824309BB29A
:1027A80012FB03F39AB2FB8813449AB297F82430C9
:1027B8009BB213449BB2013B9CB2FB7B9AB297F845
:1027C80024309BB212FB03F39AB2BB8813449AB22B
:1027D80097F824309BB213449BB2013B9AB23B88D2
:1027E800009313462246FFF71BFD65E0BB7B9AB2B8
:1027F800FB88134498B2FB7B9AB2BB8813449BB204
:102808003A881946FFF768FD56E03A8C3B889A42A9
:1028180052D097F82430012B40D9BB7B9AB297F855
:1028280024309BB212FB03F39AB2FB88134498B28C
:10283800FB7B9AB297F824309BB212FB03F39AB24F
:10284800BB88134499B2BB7B9AB297F824309BB2E9
:1028580012FB03F39AB2FB8813449AB297F8243018
:102868009BB213449BB2013B9CB2FB7B9AB297F894
:1028780024309BB212FB03F39AB2BB8813449AB27A
:1028880097F824309BB213449BB2013B9AB23B8C1D
:10289800009313462246FFF7C3FC0DE0BB7B9AB2B8
:1028A800FB88134498B2FB7B9AB2BB8813449BB253
:1028B8003A8C1946FFF710FDBB7B0133BB73BB7B1A
:1028C800072B7FF640AFFB7B0133FB73FB7B0F2BA2
:1028D8007FF636AF00E000BF1437BD4690BD00BF9D
:1028E8001C76000890B589B002AFBA601A46034654
:1028F800FB810B46BB811346FB80FB89FB82BB89AE
:10290800BB8231E0FA8A97F82C30DB001344B3F528
:10291800F07F11DDFB89FB8297F82C309BB21B01FD
:102928009AB2BB8A1344BB82BA8A97F82C301B012F
:102938001344B3F5A07F1CDCBB681A78FC88B98AFD
:10294800F88A97F82C3001933B8D00932346FFF7C4
:10295800D5FE97F82C309BB2DB009AB2FB8A134461
:10296800FB82BB680133BB60BB681B78002BC9D1F5
:1029780000E000BF00BF1C37BD4690BD90B585B0D4
:1029880002AF0446084611461A462346FB80034612
:10299800BB800B46FB7013463B80FB78092B03D8A2
:1029A800FB783033FB7002E0FB783733FB703C88F0
:1029B800FA78B988F8883B7F01933B8B00932346CC
:1029C800FFF79CFE00BF0C37BD4690BD80B500AF39
:1029D800FFF778FB1120FFF793FB782000F054F9FC
:1029E8003620FFF78DFBE820FFF7ACFB3A20FFF716
:1029F80087FB0520FFF7A6FBB220FFF781FB082025
:102A0800FFF7A0FB0820FFF79DFB0020FFF79AFBCC
:102A18003320FFF797FB3320FFF794FBB720FFF72E
:102A28006FFB4520FFF78EFBBB20FFF769FB1920E2
:102A3800FFF788FBC020FFF763FB2C20FFF782FB22
:102A4800C220FFF75DFB0120FFF77CFBC320FFF7E7
:102A580057FB1220FFF776FBC420FFF751FB20201D
:102A6800FFF770FBC620FFF74BFB0F20FFF76AFB51
:102A7800D020FFF745FBA420FFF764FBA120FFF758
:102A880061FBE020FFF73CFBD020FFF75BFB042055
:102A9800FFF758FB0D20FFF755FB1120FFF752FBFE
:102AA8001320FFF74FFB2B20FFF74CFB3F20FFF7CE
:102AB80049FB2C20FFF746FB2920FFF743FB252085
:102AC800FFF740FB2B20FFF73DFB3320FFF73AFBD6
:102AD8003E20FFF737FB0020FFF734FB0020FFF70D
:102AE80031FB0020FFF72EFBE120FFF709FBD02088
:102AF800FFF728FB0420FFF725FB0C20FFF722FB3C
:102B08001120FFF71FFB1320FFF71CFB2C20FFF7FA
:102B180019FB3F20FFF716FB2D20FFF713FB2E2094
:102B2800FFF710FB2E20FFF70DFB3020FFF70AFB05
:102B38003820FFF707FB3E20FFF704FB0020FFF7D4
:102B480001FB0020FFF7FEFA0020FFF7FBFA202028
:102B5800FFF7D6FA2920FFF7D3FA642000F094F89B
:102B680000BF80BD80B582B000AF032000F0A2F99D
:102B780002F094FB0246154B9B691B0A03F00F03F6
:102B88001349CB5C03F01F0322FA03F37B600F4B5E
:102B98009B6903F00F030E4AD35C03F01F037A68A6
:102BA80022FA03F30B4A13600B4A7B6813600F2069
:102BB80000F014F80346002B01D0012302E0FEF7D1
:102BC80045F8002318460837BD4680BD0044025822
:102BD8000C760008100000240C00002480B582B098
:102BE80000AF7860154B1B78002B01D1012321E041
:102BF800134B1A68114B1B7819464FF47A73B3FBC1
:102C0800F1F3B2FBF3F3184600F087F90346002B03
:102C180001D001230EE07B680F2B0AD800227968C7
:102C28004FF0FF3000F051F9064A7B68136000232B
:102C380000E0012318460837BD4680BD3C0000244B
:102C48000C0000243800002480B400AF064B1B7829
:102C58001A46064B1B681344044A136000BFBD465E
:102C68005DF8047B704700BF3C000024CC010024C1
:102C780080B400AF034B1B681846BD465DF8047B63
:102C8800704700BFCC01002480B584B000AF7860E5
:102C9800FFF7EEFFB8607B68FB60FB68B3F1FF3FAE
:102CA80005D00A4B1B781A46FB681344FB6000BF2B
:102CB800FFF7DEFF0246BB68D31AFA689A42F7D8D4
:102CC80000BF00BF1037BD4680BD00BF3C000024D8
:102CD80080B400AF034B1B681B0C1846BD465DF85B
:102CE800047B70470010005C80B483B000AF78604C
:102CF8003960074B5A687B68DB431A4004493B68D4
:102D080013434B6000BF0C37BD465DF8047B70472A
:102D18000004005880B485B000AF78607B6803F089
:102D28000703FB600B4BDB68BB60BA684FF6FF0319
:102D38001340BB60FB681A02BB681A43064B134377
:102D4800BB60044ABB68D36000BF1437BD465DF85A
:102D5800047B704700ED00E00000FA0580B400AF86
:102D6800044BDB681B0A03F007031846BD465DF8F1
:102D7800047B704700ED00E080B483B000AF0346E9
:102D8800FB80B7F90630002B0BDBFB8803F01F0232
:102D98000749B7F906305B09012000FA02F241F849
:102DA800232000BF0C37BD465DF8047B704700BF89
:102DB80000E100E080B483B000AF03463960FB80D7
:102DC800B7F90630002B0ADB3B68DAB20C49B7F9D1
:102DD80006301201D2B20B4483F800230AE03B68A4
:102DE800DAB20849FB8803F00F03043B1201D2B2A0
:102DF8000B441A7600BF0C37BD465DF8047B70475C
:102E080000E100E000ED00E080B489B000AFF860B8
:102E1800B9607A60FB6803F00703FB61FB69C3F1E3
:102E28000703042B28BF0423BB61FB690433062B6B
:102E380002D9FB69033B00E000237B614FF0FF32BE
:102E4800BB6902FA03F3DA43BB681A407B699A400C
:102E58004FF0FF317B6901FA03F3D9437B680B40DC
:102E6800134318462437BD465DF8047B70470000BD
:102E780080B582B000AF78607B68013BB3F1807F9A
:102E880001D301230FE00A4A7B68013B53600F21FD
:102E98004FF0FF30FFF78EFF054B00229A60044B7E
:102EA80007221A60002318460837BD4680BD00BFB8
:102EB80010E000E080B582B000AF78607868FFF776
:102EC80029FF00BF0837BD4680BD80B586B000AF7A
:102ED8000346B9607A60FB81FFF740FF78617A6842
:102EE800B9687869FFF790FF0246B7F90E301146C6
:102EF8001846FFF75FFF00BF1837BD4680BD80B595
:102F080082B000AF0346FB80B7F906301846FFF7DA
:102F180033FF00BF0837BD4680BD80B582B000AF23
:102F280078607868FFF7A4FF034618460837BD465F
:102F380080BD000080B400AFBFF35F8F00BF074BB8
:102F48005B6A064A23F480335362054B00225A60B9
:102F580000BFBD465DF8047B704700BF00ED00E090
:102F680090ED00E080B483B000AF78600B4A7B68D6
:102F780043F0010353600A4B5B6A094A43F4803308
:102F88005362BFF34F8F00BFBFF36F8F00BF00BF07
:102F98000C37BD465DF8047B704700BF90ED00E03C
:102FA80000ED00E080B483B000AF78607B685A78A9
:102FB8001B4B9A601A4B1B69194A23F001031361D2
:102FC800174A7B685B68D3607B681B7B1A077B6842
:102FD800DB7A1B061A437B689B7ADB041A437B68FF
:102FE8005B7B9B041A437B689B7B5B041A437B686F
:102FF800DB7B1B041A437B685B7A1B021A437B68E2
:103008001B7A5B0013437A6812781146044A0B4313
:10301800136100BF0C37BD465DF8047B704700BFE5
:1030280090ED00E080B598B000AF7860844A07F171
:103038000C0311464C22184604F040FA7B68002B1A
:1030480001D10123C6E17B681B687E4A934206D101
:103058007B681B6803F580731A467B685A607B6837
:1030680093F89830DBB2002B06D17B68002283F8F6
:1030780099207868FDF704FE7B681B689A697B686D
:103088001B6822F010029A61FFF7F2FDF86514E060
:10309800FFF7EEFD0246FB6DD31A0A2B0DD97B68AC
:1030A800D3F89C3043F001027B68C3F89C207B680E
:1030B800032283F8982001238CE17B681B689B69B5
:1030C80003F00803082BE3D07B681B689A697B68C8
:1030D8001B6842F001029A61FFF7CAFDF86514E027
:1030E800FFF7C6FD0246FB6DD31A0A2B0DD97B6884
:1030F800D3F89C3043F001027B68C3F89C207B68BE
:10310800032283F89820012364E17B681B689B698C
:1031180003F00103002BE3D07B681B689A697B6886
:103128001B6842F002029A617B681B7C012B08D164
:103138007B681B689A697B681B6822F040029A6169
:1031480007E07B681B689A697B681B6842F040024D
:103158009A617B685B7C012B08D17B681B689A6944
:103168007B681B6842F480429A6107E07B681B68B1
:103178009A697B681B6822F480429A617B689B7C11
:10318800012B08D17B681B689A697B681B6822F44D
:1031980080529A6107E07B681B689A697B681B68A4
:1031A80042F480529A617B681B689B6923F44071E2
:1031B8007B689A687B681B680A439A617B681B680E
:1031C8009A697B681B6822F0A4029A617B681B6875
:1031D8001A697B681B6822F010021A617B68DB6839
:1031E800012B08D17B681B689A697B681B6842F0D1
:1031F80004029A6130E07B68DB68002B2CD07B6886
:10320800DB68022B20D07B681B689A697B681B6887
:1032180042F080029A617B681B681A697B681B68A8
:1032280042F010021A617B68DB68032B14D17B68BB
:103238001B689A697B681B6842F020029A610BE060
:10324800C075000800A000407B681B689A697B680D
:103258001B6842F020029A617B689B69013B5A0611
:103268007B68DB69013B1B021A437B681B6A013BD5
:1032780042EA03017B685B69013B1A047B681B68AF
:103288000A43DA617B689B68B3F5407F15D17B6898
:103298009B6A5A1E7B68DB6A013B1B021A437B68E8
:1032A8001B6B013B1B0142EA03017B685B6A013B24
:1032B8001A047B681B680A43DA607B681B6E002B64
:1032C8000AD07B681B68D3F8C0107B685A6E7B688D
:1032D8001B680A43C3F8C0207B68DA6D7B681B6EE5
:1032E8001344002B11D07B681B68D3F8C83023F037
:1032F80007017B689B6E9B0060333B4453F8542C5A
:103308007B681B680A43C3F8C8207B681B6C002BCA
:1033180011D07B681B68D3F8BC3023F007017B68A9
:103328005B6C9B0060333B4453F8542C7B681B68F0
:103338000A43C3F8BC207B689B6C002B12D07B68C7
:103348001B68D3F8BC3023F070017B68DB6C9B00F2
:1033580060333B4453F8543C1A017B681B680A43AA
:10336800C3F8BC207B681B6D002B12D07B681B68E0
:10337800D3F8BC3023F4E0617B685B6D9B0060335D
:103388003B4453F8543C1A027B681B680A43C3F851
:10339800BC207B681B68114A934207D17B685B6835
:1033A8009A687B685B6822F003029A607B68002257
:1033B800C3F894207B680022C3F89C207B68012214
:1033C80083F89820786800F09DFD034687F85B3005
:1033D80097F85B3018466037BD4680BD00A00040B6
:1033E80080B487B000AF786039607B6893F8983014
:1033F800FB73FB7B012B02D0FB7B022B57D13B6875
:103408001B68002B2BD13B68DB68072B0DD13B6871
:103418001B691A043B68DB691B021A433B689B69FA
:10342800134343F060537B610EE03B689B689A0747
:103438003B68DB68DB061A433B681B691B041A43BD
:103448003B685B6913437B617B68DA6E3B685B684A
:103458009B001344BB60BB687A691A6025E03B682F
:10346800DB685A073B681B6913437B613B68DB6871
:10347800072B03D13B689B693B6106E03B689B686F
:103488009A073B685B6913433B617B681A6F3B682B
:103498005B68DB001344BB60BB687A691A60BB6871
:1034A8000433BB60BB683A691A60002308E07B6894
:1034B800D3F89C3043F002027B68C3F89C200123B8
:1034C80018461C37BD465DF8047B704780B483B04E
:1034D80000AF78607B6893F89830DBB2012B11D18C
:1034E8007B68022283F898207B681B689A697B684E
:1034F8001B6822F001029A617B680022C3F89C20B5
:10350800002308E07B68D3F89C3043F004027B6812
:10351800C3F89C20012318460C37BD465DF8047B90
:103528007047000080B48BB000AFF860B9607A6073
:103538003B600023FB61FB6893F89830FB76FB7EC9
:10354800022B40F04981BB68402B4CD1FB681B68BB
:10355800D3F8A03003F4FE03002B09D1FB68D3F89D
:103568009C3043F02002FB68C3F89C2001233CE117
:10357800FB681B68D3F8A43003F07F03002B09D144
:10358800FB68D3F89C3043F48072FB68C3F89C2036
:1035980001232AE1FB681B68D3F8A43003F0807389
:1035A800B3F1807F0AD1FB681B68D3F8A03003F021
:1035B8000043B3F1004F01D10123FB61FB681B6895
:1035C800D3F8A4301B0A03F03F03FA691344FB61E4
:1035D800FB685A6FFB685B6CF96901FB03F39B009E
:1035E80013447B6268E0BB68412B4CD1FB681B68C5
:1035F800D3F8B03003F4FE03002B09D1FB68D3F8ED
:103608009C3043F02002FB68C3F89C200123ECE0C7
:10361800FB681B68D3F8B43003F07F03002B09D193
:10362800FB68D3F89C3043F48072FB68C3F89C2095
:103638000123DAE0FB681B68D3F8B43003F0807329
:10364800B3F1807F0AD1FB681B68D3F8B03003F070
:103658000043B3F1004F01D10123FB61FB681B68F4
:10366800D3F8B4301B0A03F03F03FA691344FB6133
:10367800FB689A6FFB68DB6CF96901FB03F39B003D
:1036880013447B6218E0FB681B6DBA689A4209D341
:10369800FB68D3F89C3043F02002FB68C3F89C20F9
:1036A8000123A2E0FB68DA6FFB685B6DB96801FB78
:1036B80003F39B0013447B627B6A1B6803F0804220
:1036C8007B685A607B685B68002B07D17B6A1B6844
:1036D8009B0CC3F30A027B681A6005E07B6A1B68CF
:1036E80023F060427B681A607B6A1B6803F0005213
:1036F8007B689A607B6A1B6803F000427B681A61EA
:103708007B6A04337B627B6A1B689AB27B68DA61E6
:103718007B6A1B681B0C03F00F027B68DA607B6A0C
:103728001B6803F480127B685A617B6A1B6803F488
:1037380000127B689A617B6A1B681B0E03F07F028C
:103748007B681A627B6A1B68DA0F7B685A627B6A3D
:1037580004337B627B6A7B6100233B620AE07A69FF
:103768003B6A1A4439683B6A0B4412781A703B6A00
:1037780001333B627B68DB681F4AD35C1A463B6AAD
:103788009342ECD3BB68402B05D1FB681B68FA69F0
:10379800C3F8A8201EE0BB68412B05D1FB681B6855
:1037A800FA69C3F8B82015E0BB681F2B08D8FB6876
:1037B8001B680121BA6801FA02F2C3F8982009E0EF
:1037C800BB6803F01F02FB681B68012101FA02F2C3
:1037D800C3F89C20002308E0FB68D3F89C3043F032
:1037E8000802FB68C3F89C20012318462C37BD4605
:1037F8005DF8047B704700BFCC7A000880B487B0BE
:1038080000AFF860B9607A60FB6893F89830FB7590
:10381800FB7D012B02D0FB7D022B55D1FB681B6879
:103828009A6DBB681340002B08D1FB681B68DA6DE2
:10383800FB681B6842F00102DA6514E0FB681B684C
:103848009A6DBB681340BA689A4208D1FB681B6836
:10385800DA6DFB681B6842F00202DA6503E0FB6878
:103868001B680322DA65BB6803F40073002B09D0D8
:10387800FB681B68D3F8E010FB681B687A680A438A
:10388800C3F8E020BB6803F48063002B09D0FB6811
:103898001B68D3F8E410FB681B687A680A43C3F80E
:1038A800E420FB681B68596DBA680F4B1340FA682F
:1038B80012680B4353650D4B5A69BB689B0F0B4944
:1038C80013434B61002308E0FB68D3F89C3043F0B6
:1038D8000202FB68C3F89C20012318461C37BD462A
:1038E8005DF8047B704700BFFFFFCF3F00A8004092
:1038F80080B596B000AF78609A4B1B699B077B65D3
:10390800984B5B699B077A6D13407B657B681B68E6
:103918001B6D03F470433B657B681B685B6D3A6DF8
:1039280013403B657B681B681B6D03F00F03FB644A
:103938007B681B685B6DFA6C1340FB647B681B68D3
:103948001B6D03F0F003BB647B681B685B6DBA6C8E
:103958001340BB647B681B681B6D03F071537B6469
:103968007B681B685B6D7A6C13407B647B681B68A3
:103978001B6D03F060733B647B681B685B6D3A6C7E
:1039880013403B647B681B685B6DFB637B681B684B
:103998001B6DBB63FB6B1B0A03F00103002B10D0EC
:1039A800BB6B1B0A03F00103002B0AD07B681B6862
:1039B8004FF480721A656B4B00221A61786800F028
:1039C80054FAFB6B9B0A03F00103002B1DD0BB6B61
:1039D8009B0A03F00103002B17D07B681B68D3F800
:1039E800DC307B637B681B68D3F8E4307A6B134068
:1039F8007B637B681B684FF480621A65594B002211
:103A08001A61796B786800F007FA7B6D002B0DD08E
:103A18007B681A68796D544B0B401365514A7B6D6E
:103A28009B0F1361796D786800F0C0F93B6D002B2E
:103A38000DD07B681A68396D4B4B0B401365494AAA
:103A48003B6D9B0F1361396D786800F0BAF9FB6C18
:103A5800002B0DD07B681A68F96C434B0B4013653B
:103A6800404AFB6C9B0F1361F96C7868FCF76AFE9F
:103A7800BB6C002B0DD07B681A68B96C3A4B0B40B5
:103A88001365384ABB6C9B0F1361B96C786800F0FA
:103A9800A3F9FB6BDB0A03F00103002B10D0BB6B0F
:103AA800DB0A03F00103002B0AD07B681B684FF484
:103AB80000621A652B4B00221A61786800F097F9AA
:103AC800FB6B5B0A03F00103002B1DD0BB6B5B0A89
:103AD80003F00103002B17D07B681B68D3F8D8309C
:103AE8003B637B681B68D3F8E0303A6B13403B6359
:103AF8007B681B684FF400721A651A4B00221A6122
:103B0800396B786800F07DF9FB6BDB0C03F001037F
:103B1800002B10D0BB6BDB0C03F00103002B0AD089
:103B28007B681B684FF400221A650E4B00221A614D
:103B3800786800F07CF9FB6B1B0C03F00103002B89
:103B480016D0BB6B1B0C03F00103002B10D07B6855
:103B58001B684FF480321A65024B00221A6178689C
:103B680004E000BF00A80040FFFFCF3F00F069F964
:103B7800FB6B9B0C03F00103002B10D0BB6B9B0C61
:103B880003F00103002B0AD07B681B684FF48022E6
:103B98001A65834B00221A61786800F05CF9FB6BA8
:103BA8005B0C03F00103002B15D0BB6B5B0C03F01F
:103BB8000103002B0FD07B681B684FF400321A6595
:103BC800774B00221A617B68D3F89C3043F080025F
:103BD8007B68C3F89C203B6C002B0DD07B681A686F
:103BE800396C704B0B4013656D4A3B6C9B0F13612E
:103BF800396C786800F04DF97B6C002B11D07B682C
:103C08001A68796C674B0B401365654A7B6C9B0F90
:103C180013617B68D3F89C207B6C1A437B68C3F8DC
:103C28009C207B681B68604A934240F0AC807B68AC
:103C38005B689B6803F00303002B00F0A4807B689B
:103C48005B681B6A03F00F03FB627B685B685B6A57
:103C5800FA6A1340FB627B685B681B6A03F03003F7
:103C6800BB627B685B685B6ABA6A1340BB627B684D
:103C78005B681B6A03F4C0737B627B685B685B6A82
:103C88007A6A13407B627B685B681B6A03F4FC43B7
:103C98003B627B685B685B6A3A6A13403B627B689D
:103CA8005B681B6A03F4F023FB617B685B685B6AF3
:103CB800FA691340FB617B685B685B6ABB617B6880
:103CC8005B681B6A7B61FB6A002B07D07B685B68BB
:103CD800FA6A1A62F96A786800F0E6F8BB6A002B9B
:103CE80007D07B685B68BA6A1A62B96A786800F0BC
:103CF800E6F8BB699B0903F00103002B1AD07B6926
:103D08009B0903F00103002B14D07B685B68DB6B15
:103D18001B0C9BB23B617B685B68DB6B03F03F036A
:103D2800FB607B685B6840221A62FA6839697868C8
:103D380000F0D0F87B6A002B07D07B685B687A6A52
:103D48001A62796A786800F0D1F83B6A002B0BD0C8
:103D58007B685B683A6A1A627B68D3F89C203B6A86
:103D68001A437B68C3F89C20FB69002B0BD07B6847
:103D78005B68FA691A627B68D3F89C20FB691A436E
:103D88007B68C3F89C207B68D3F89C30002B02D05A
:103D9800786800F074F800BF5837BD4680BD00BF92
:103DA80000A80040FFFFCF3F00A0004080B483B0D0
:103DB80000AF7860396000BF0C37BD465DF8047B02
:103DC800704780B483B000AF7860396000BF0C37AB
:103DD800BD465DF8047B704780B483B000AF78605F
:103DE800396000BF0C37BD465DF8047B704780B46E
:103DF80083B000AF786000BF0C37BD465DF8047B28
:103E0800704780B483B000AF7860396000BF0C376A
:103E1800BD465DF8047B704780B483B000AF78601E
:103E2800396000BF0C37BD465DF8047B704780B42D
:103E380083B000AF786000BF0C37BD465DF8047BE7
:103E4800704780B483B000AF786000BF0C37BD46C0
:103E58005DF8047B704780B483B000AF786000BF22
:103E68000C37BD465DF8047B704780B483B000AF63
:103E7800786000BF0C37BD465DF8047B704780B49E
:103E880083B000AF786000BF0C37BD465DF8047B97
:103E9800704780B483B000AF7860396000BF0C37DA
:103EA800BD465DF8047B704780B483B000AF78608E
:103EB800396000BF0C37BD465DF8047B704780B49D
:103EC80083B000AF7860396000BF0C37BD465DF83D
:103ED800047B704780B485B000AFF860B9607A6041
:103EE80000BF1437BD465DF8047B704780B483B0CB
:103EF80000AF7860396000BF0C37BD465DF8047BC1
:103F08007047000080B485B000AF78607B685B6B59
:103F1800BB607B681B68D3F88420A74B1340BA6842
:103F280091007A6812680B43C2F884307B681B687A
:103F3800D3F8843023F47F017B689B6B1A047B6879
:103F48001B680A43C3F884207B689B6BBA681344D8
:103F5800BB607B681B68D3F88820974B1340BA680E
:103F680091007A6812680B43C2F888307B681B6836
:103F7800D3F8883023F4FE017B68DB6B1A047B6876
:103F88001B680A43C3F888207B68DB6B5B00BA6850
:103F98001344BB607B681B68D3F8A020864B134092
:103FA800BA6891007A6812680B43C2F8A0307B683F
:103FB8001B68D3F8A03023F4FE017B681B6C1A043D
:103FC8007B681B680A43C3F8A0207B681B6C7A686F
:103FD800526C02FB03F3BA681344BB607B681B682E
:103FE800D3F8B020744B1340BA6891007A6812680D
:103FF8000B43C2F8B0307B681B68D3F8B03023F4A9
:10400800FE017B689B6C1A047B681B680A43C3F833
:10401800B0207B689B6C7A68D26C02FB03F3BA68A9
:104028001344BB607B681B68D3F8AC20624B134019
:10403800BA6891007A6812680B43C2F8AC307B68A2
:104048001B6D7A68526D02FB03F3BA681344BB60B8
:104058007B681B68D3F8F020574B1340BA6891006F
:104068007A6812680B43C2F8F0307B681B68D3F893
:10407800F03023F47C117B689B6D1A047B681B6805
:104088000A43C3F8F0207B689B6D5B00BA68134451
:10409800BB607B681B68D3F8C020474B1340BA68E5
:1040A80091007A6812680B43C2F8C0307B681B68BD
:1040B800D3F8C03023F47C117B68DB6D1A047B686D
:1040C8001B680A43C3F8C0207B681B68D3F8C0305C
:1040D80023F07C517B681B6E1A067B681B680A43B9
:1040E800C3F8C0207B685A6B344B13449A007B6832
:1040F800DA667B68DA6E7B689B6B9B001A447B6888
:104108001A677B681A6F7B68DB6BDB001A447B6875
:104118005A677B685A6F7B681B6C7968496C01FB2E
:1041280003F39B001A447B689A677B689A6F7B68E5
:104138009B6C7968C96C01FB03F39B001A447B688C
:10414800DA677B68DA6F7B681B6D7968496D01FBFC
:1041580003F39B001A447B68C3F880207B68D3F87C
:1041680080207B689B6DDB001A447B68C3F8842041
:104178007B68D3F884207B68DB6D7968896E01FBE6
:1041880003F39B001A447B68C3F888207B68D3F844
:1041980088207B681B6E7968896E01FB03F39B009E
:1041A8001A447B68C3F890207B68D3F89030044A9F
:1041B800934215D906E000BF0300FFFF002B001053
:1041C800FCD300407B68D3F89C3043F020027B6826
:1041D800C3F89C207B68032283F89820012310E011
:1041E8007B68DB6EFB6005E0FB6800221A60FB68F9
:1041F8000433FB607B68D3F89030FA689A42F3D3B3
:10420800002318461437BD465DF8047B704700BF8D
:1042180080B489B000AF786039600023FB61894BB6
:104228007B6194E13B681A680121FB6901FA03F399
:1042380013403B613B69002B00F086813B685B685B
:1042480003F00303012B05D03B685B6803F003030D
:10425800022B30D17B689B68BB61FB695B00032242
:1042680002FA03F3DB43BA691340BB613B68DA68BF
:10427800FB695B0002FA03F3BA691343BB617B680D
:10428800BA699A607B685B68BB610122FB6902FAC4
:1042980003F3DB43BA691340BB613B685B681B09E6
:1042A80003F00102FB6902FA03F3BA691343BB6125
:1042B8007B68BA695A603B685B6803F00303032BA9
:1042C80017D07B68DB68BB61FB695B00032202FADD
:1042D80003F3DB43BA691340BB613B689A68FB6927
:1042E8005B0002FA03F3BA691343BB617B68BA69DE
:1042F800DA603B685B6803F00303022B23D1FB6998
:10430800DA087B68083253F82230BB61FB6903F096
:1043180007039B000F2202FA03F3DB43BA69134039
:10432800BB613B681A69FB6903F007039B0002FA4B
:1043380003F3BA691343BB61FB69DA087B68083287
:10434800B96943F822107B681B68BB61FB695B0095
:10435800032202FA03F3DB43BA691340BB613B68EB
:104368005B6803F00302FB695B0002FA03F3BA69B6
:104378001343BB617B68BA691A603B685B6803F4E6
:104388004033002B00F0E0802F4BD3F8F4302E4A56
:1043980043F00203C2F8F4302B4BD3F8F43003F0A7
:1043A8000203FB60FB68294AFB699B08023352F849
:1043B8002330BB61FB6903F003039B000F2202FA61
:1043C80003F3DB43BA691340BB617B68204A93421D
:1043D80052D07B681F4A934231D07B681E4A934271
:1043E8002BD07B681D4A934225D07B681C4A934298
:1043F8001FD07B681B4A934219D07B681A4A9342A4
:1044080013D07B68194A93420DD07B68184A9342AF
:1044180007D07B68174A934201D109232DE00A236C
:104428002BE0082329E0072327E0062325E00523BE
:1044380023E0042321E003231FE002231DE00123DE
:104448001BE000BF800000580044025800040058D8
:10445800000002580004025800080258000C0258D4
:10446800001002580014025800180258001C025884
:1044780000200258002402580023FA6902F00302BF
:1044880092009340BA691343BB613849FB699B08A2
:104498000233BA6941F823204FF0B0431B68BB616F
:1044A8003B69DB43BA691340BB613B685B6803F453
:1044B8008013002B03D0BA693B691343BB614FF0EB
:1044C800B042BB6913604FF0B0435B68BB613B69A6
:1044D800DB43BA691340BB613B685B6803F40013B4
:1044E800002B03D0BA693B691343BB614FF0B0425C
:1044F800BB6953607B695B68BB613B69DB43BA6935
:104508001340BB613B685B6803F40033002B03D0A6
:10451800BA693B691343BB617B69BA695A607B69B5
:104528001B68BB613B69DB43BA691340BB613B68ED
:104538005B6803F48033002B03D0BA693B691343EB
:10454800BB617B69BA691A60FB690133FB613B682F
:104558001A68FB6922FA03F3002B7FF463AE00BFED
:1045680000BF2437BD465DF8047B7047000400583F
:1045780080B485B000AF78600B467B807B681A6991
:104588007B881340002B02D00123FB7301E000233A
:10459800FB73FB7B18461437BD465DF8047B7047F8
:1045A80080B483B000AF78600B467B8013467B7085
:1045B8007B78002B03D07A887B689A6103E07B883C
:1045C8001A047B689A6100BF0C37BD465DF8047B0E
:1045D800704780B485B000AF78600B467B807B68FD
:1045E8005B69FB607A88FB6813401A04FB68D9434F
:1045F8007B880B401A437B689A6100BF1437BD461D
:104608005DF8047B7047000080B584B000AF786027
:10461800194BDB6803F00403042B0AD0164BDB6844
:1046280003F007037A689A4201D001231FE00023B0
:104638001DE0114BDB6823F007020F497B68134329
:10464800CB60FEF715FBF86009E0FEF711FB0246A8
:10465800FB68D31AB3F57A7F01D9012307E0064B2B
:104668005B6803F40053B3F5005FEED100231846EE
:104678001037BD4680BD00BF0048025880B58CB0D9
:1046880000AF78607B68002B02D1012300F048BCA2
:104698007B681B6803F00103002B00F08880994BAE
:1046A8001B6903F03803FB62964B9B6ABB62FB6A8B
:1046B800102B07D0FB6A182B11D1BB6A03F0030338
:1046C800022B0CD18F4B1B6803F40033002B6DD0E9
:1046D8007B685B68002B69D1012300F021BC7B68F3
:1046E8005B68B3F5803F06D1864B1B68854A43F467
:1046F800803313602EE07B685B68002B0CD1814B04
:104708001B68804A23F4803313607E4B1B687D4A04
:1047180023F4802313601DE07B685B68B3F5A02F4A
:104728000CD1784B1B68774A43F480231360754B90
:104738001B68744A43F4803313600BE0714B1B68A9
:10474800704A23F4803313606E4B1B686D4A23F460
:10475800802313607B685B68002B13D0FEF788FA10
:10476800786208E0FEF784FA02467B6AD31A642B63
:1047780001D90323D4E3634B1B6803F40033002BF4
:10478800F0D014E0FEF774FA786208E0FEF770FAE9
:1047980002467B6AD31A642B01D90323C0E3594B21
:1047A8001B6803F40033002BF0D100E000BF7B68E6
:1047B8001B6803F00203002B00F0CA80514B1B69F1
:1047C80003F038033B624F4B9B6AFB613B6A002B4B
:1047D80007D03B6A182B56D1FB6903F00303002B63
:1047E80051D1484B1B6803F00403002B05D07B68AC
:1047F800DB68002B01D1012392E3424B1B6823F0B5
:1048080019027B68DB683F4913430B60FEF730FAF7
:10481800786208E0FEF72CFA02467B6AD31A022B6C
:1048280001D903237CE3374B1B6803F00403002BF7
:10483800F0D0FEF74DFA034641F20302934217D82F
:104848007B681B69402B08D12E4B5B6823F47C33B3
:104858002C4A43F4003353607AE02A4B5B6823F414
:104868007C327B681B691B03264913434B606FE04E
:10487800244B5B6823F0FE427B681B691B062149B9
:1048880013434B6064E07B68DB68002B47D01D4B0B
:104898001B6823F019027B68DB681A4913430B6015
:1048A800FEF7E6F9786208E0FEF7E2F902467B6A6D
:1048B800D31A022B01D9032332E3124B1B6803F0EE
:1048C8000403002BF0D0FEF703FA034641F203027B
:1048D800934219D87B681B69402B08D1094B5B6848
:1048E80023F47C33074A43F40033536030E0054B2C
:1048F8005B6823F47C327B681B691B030149134303
:104908004B6025E0004402589A4B5B6823F0FE4256
:104918007B681B691B06974913434B6018E0954B4E
:104928001B68944A23F001031360FEF7A1F978622B
:1049380008E0FEF79DF902467B6AD31A022B01D9DB
:104948000323EDE28B4B1B6803F00403002BF0D12B
:104958007B681B6803F01003002B00F0A980854BCF
:104968001B6903F03803BB61824B9B6A7B61BB699F
:10497800082B07D0BB69182B3AD17B6903F00303D6
:10498800012B35D17B4B1B6803F48073002B05D0BA
:104998007B68DB69802B01D00123C1E2FEF798F91F
:1049A800034641F20302934217D87B681B6A202B07
:1049B80008D1704B5B6823F0F8436E4A43F080439C
:1049C800536075E06B4B5B6823F0F8427B681B6AA9
:1049D8009B06684913434B606AE0664BDB6823F02B
:1049E8007C527B681B6A1B0662491343CB605FE0FD
:1049F8007B68DB69002B42D05E4B1B685D4A43F045
:104A080080031360FEF734F9786208E0FEF730F9A6
:104A180002467B6AD31A022B01D9032380E2554B45
:104A28001B6803F48073002BF0D0FEF751F903469E
:104A380041F20302934217D87B681B6A202B08D1E6
:104A48004C4B5B6823F0F8434A4A43F08043536079
:104A58002EE0484B5B6823F0F8427B681B6A9B0694
:104A6800444913434B6023E0424BDB6823F07C52FC
:104A78007B681B6A1B063F491343CB6018E03D4B1C
:104A88001B683C4A23F080031360FEF7F1F8786254
:104A980008E0FEF7EDF802467B6AD31A022B01D92B
:104AA80003233DE2334B1B6803F48073002BF0D1E2
:104AB8007B681B6803F00803002B36D07B685B69B2
:104AC800002B19D02B4B5B6F2A4A43F00103536725
:104AD800FEF7CEF8786208E0FEF7CAF802467B6A6D
:104AE800D31A022B01D903231AE2224B5B6F03F07E
:104AF8000203002BF0D018E01E4B5B6F1D4A23F019
:104B080001035367FEF7B4F8786208E0FEF7B0F8DF
:104B180002467B6AD31A022B01D9032300E2154B04
:104B28005B6F03F00203002BF0D17B681B6803F076
:104B38002003002B39D07B689B69002B1CD00D4BC0
:104B48001B680C4A43F480531360FEF791F87862AF
:104B580008E0FEF78DF802467B6AD31A022B01D9CA
:104B68000323DDE1034B1B6803F40053002BF0D053
:104B78001BE000BF004402589B4B1B689A4A23F471
:104B880080531360FEF774F8786208E0FEF770F857
:104B980002467B6AD31A022B01D90323C0E1924B48
:104BA8001B6803F40053002BF0D17B681B6803F0EB
:104BB8000403002B00F081808C4B1B688B4A43F464
:104BC80080731360FEF754F8786208E0FEF750F837
:104BD80002467B6AD31A642B01D90323A0E1834BD5
:104BE8001B6803F48073002BF0D07B689B68012B53
:104BF80006D17D4B1B6F7C4A43F0010313672DE000
:104C08007B689B68002B0CD1774B1B6F764A23F08F
:104C180001031367744B1B6F734A23F00403136774
:104C28001CE07B689B68052B0CD16F4B1B6F6E4A91
:104C380043F0040313676C4B1B6F6B4A43F001038B
:104C480013670BE0684B1B6F674A23F00103136778
:104C5800654B1B6F644A23F0040313677B689B68EA
:104C6800002B15D0FEF704F878620AE0FEF700F88A
:104C780002467B6AD31A41F28832934201D9032350
:104C88004EE1594B1B6F03F00203002BEED014E0EA
:104C9800FDF7EEFF78620AE0FDF7EAFF02467B6A5D
:104CA800D31A41F28832934201D9032338E14E4B9B
:104CB8001B6F03F00203002BEED17B685B6A002BAD
:104CC80000F02D81484B1B6903F03803182B00F0C6
:104CD800BD807B685B6A022B40F09E80424B1B685C
:104CE800414A23F080731360FDF7C2FF786208E041
:104CF800FDF7BEFF02467B6AD31A022B01D90323B4
:104D08000EE1394B1B6803F00073002BF0D1364BD2
:104D18009A6A374B13407A68916A7A68D26A1201A4
:104D28000A43314913438B627B681B6B013BC3F316
:104D380008027B685B6B013B5B029BB21A437B6892
:104D48009B6B013B1B0403F4FE031A437B68DB6B7C
:104D5800013B1B0603F0FE43234913430B63224B1D
:104D6800DB6A214A23F00103D3621F4B5A6B214BA4
:104D780013407A68926CD2001B4913434B631A4B59
:104D8800DB6A23F00C027B681B6C17491343CB6268
:104D9800154BDB6A23F002027B685B6C12491343F4
:104DA800CB62114BDB6A104A43F48033D3620E4B5B
:104DB800DB6A0D4A43F40033D3620B4BDB6A0A4AC1
:104DC80043F48023D362084BDB6A074A43F00103AC
:104DD800D362054B1B68044A43F080731360FDF7E8
:104DE80047FF786211E000BF0044025800480258AB
:104DF8000CFCFFFF0700FFFFFDF73AFF02467B6A46
:104E0800D31A022B01D903238AE0474B1B6803F00E
:104E18000073002BF0D082E0434B1B68424A23F01A
:104E280080731360FDF724FF786208E0FDF720FF28
:104E380002467B6AD31A022B01D9032370E03A4B4E
:104E48001B6803F00073002BF0D168E0364B9B6AB7
:104E58003B61354B1B6BFB607B685B6A012B31D078
:104E68003B6903F003027B689B6A9A422AD13B693B
:104E78001B0903F03F027B68DB6A9A4222D1FB6878
:104E8800C3F308027B681B6B013B9A421AD1FB688B
:104E98005B0A03F07F027B685B6B013B9A4211D18E
:104EA800FB681B0C03F07F027B689B6B013B9A42FB
:104EB80008D1FB681B0E03F07F027B68DB6B013BAC
:104EC8009A4201D001232BE0174B5B6BDB08C3F33D
:104ED8000C033B617B689B6C3A699A421FD0124B6A
:104EE800DB6A114A23F00103D362FDF7C1FE786241
:104EF80000BFFDF7BDFE02467B6A9342F9D00A4B1C
:104F08005A6B0A4B13407A68926CD20006491343D5
:104F18004B63054BDB6A044A43F00103D362002369
:104F280018463037BD4680BD004402580700FFFFD1
:104F380080B586B000AF786039607B68002B01D1FE
:104F480001239CE18A4B1B6803F00F033A689A42DD
:104F580010D9874B1B6823F00F0285493B68134320
:104F68000B60834B1B6803F00F033A689A4201D029
:104F7800012384E17B681B6803F00403002B10D035
:104F88007B681A697B4B9B6903F070039A4208D9C6
:104F9800784B9B6923F070027B681B697549134342
:104FA8008B617B681B6803F00803002B10D07B68BB
:104FB8005A69704BDB6903F070039A4208D96D4B4C
:104FC800DB6923F070027B685B696A491343CB6134
:104FD8007B681B6803F01003002B10D07B689A696C
:104FE800644BDB6903F4E0639A4208D9614BDB69DF
:104FF80023F4E0627B689B695E491343CB617B685D
:105008001B6803F02003002B10D07B68DA69594B2A
:105018001B6A03F070039A4208D9564B1B6A23F0A7
:1050280070027B68DB69534913430B627B681B681A
:1050380003F00203002B10D07B68DA684D4B9B69A4
:1050480003F00F039A4208D94A4B9B6923F00F02D9
:105058007B68DB68474913438B617B681B6803F0F7
:105068000103002B55D0434B9B6923F470627B6886
:105078009B68404913438B617B685B68022B07D1AF
:105088003C4B1B6803F40033002B21D10123F6E0CD
:105098007B685B68032B07D1364B1B6803F00073F2
:1050A800002B15D10123EAE07B685B68012B07D14F
:1050B800304B1B6803F48073002B09D10123DEE019
:1050C8002C4B1B6803F00403002B01D10123D6E00D
:1050D800284B1B6923F007027B685B68254913434B
:1050E8000B61FDF7C5FD78610AE0FDF7C1FD0246D9
:1050F8007B69D31A41F28832934201D90323BEE077
:105108001C4B1B6903F038027B685B68DB009A4222
:10511800EBD17B681B6803F00203002B10D07B687F
:10512800DA68144B9B6903F00F039A4208D2114BBB
:105138009B6923F00F027B68DB680E4913438B6180
:105148000B4B1B6803F00F033A689A4214D2084BC2
:105158001B6823F00F0206493B6813430B60044B9E
:105168001B6803F00F033A689A4205D0012386E0D2
:1051780000200052004402587B681B6803F00403B7
:10518800002B10D07B681A693F4B9B6903F07003B2
:105198009A4208D23C4B9B6923F070027B681B69DA
:1051A800394913438B617B681B6803F00803002BA4
:1051B80010D07B685A69344BDB6903F070039A425C
:1051C80008D2314BDB6923F070027B685B692E499A
:1051D8001343CB617B681B6803F01003002B10D0CE
:1051E8007B689A69284BDB6903F4E0639A4208D22A
:1051F800254BDB6923F4E0627B689B6922491343F2
:10520800CB617B681B6803F02003002B10D07B6800
:10521800DA691D4B1B6A03F070039A4208D21A4BD5
:105228001B6A23F070027B68DB69174913430B6222
:1052380000F034F80246144B9B691B0A03F00F0375
:105248001249CB5C03F01F0322FA03F33B610E4BB8
:105258009B6903F00F030D4AD35C03F01F033A69FF
:1052680022FA03F30A4A13600A4A3B6913600A4B9D
:105278001B681846FDF7B2FC0346FB73FB7B184618
:105288001837BD4680BD00BF004402580C760008A0
:10529800100000240C0000243800002480B489B0D9
:1052A80000AFB34B1B6903F03803182B00F255818C
:1052B80001A252F823F000BF2553000863550008E7
:1052C80063550008635500086355000863550008D6
:1052D80063550008635500084B53000863550008E0
:1052E80063550008635500086355000863550008B6
:1052F80063550008635500085153000863550008BA
:105308006355000863550008635500086355000895
:10531800635500086355000857530008944B1B68F1
:1053280003F02003002B09D0914B1B68DB0803F026
:105338000303904A22FA03F3BB6111E18D4BBB6171
:105348000EE18D4BBB610BE18C4BBB6108E1884BD7
:105358009B6A03F003037B61854B9B6A1B0903F07F
:105368003F033B61824BDB6A03F00103FB60804B28
:105378005B6BDB08C3F30C03FA6802FB03F307EE6D
:10538800903AF8EE677AC7ED027A3B69002B00F095
:10539800E1807B69022B00F083807B69022B00F29D
:1053A800A1807B69002B03D07B69012B56D099E043
:1053B8006F4B1B6803F02003002B2DD06C4B1B6830
:1053C800DB0803F003036B4A22FA03F37B607B6874
:1053D80007EE903AF8EE676A3B6907EE903AF8EE06
:1053E800677A86EEA77A624B1B6BC3F3080307EE56
:1053F800903AF8EE676A97ED026ADFED615AC6EEF9
:10540800257A76EEA77AF7EE006A77EEA67A67EE47
:10541800277AC7ED077A87E03B6907EE903AF8EEFE
:10542800677ADFED586A86EEA77A514B1B6BC3F398
:10543800080307EE903AF8EE676A97ED026ADFED27
:10544800505AC6EE257A76EEA77AF7EE006A77EE1E
:10545800A67A67EE277AC7ED077A65E03B6907EE1B
:10546800903AF8EE677ADFED486A86EEA77A404B05
:105478001B6BC3F3080307EE903AF8EE676A97EDE3
:10548800026ADFED3F5AC6EE257A76EEA77AF7EE86
:10549800006A77EEA67A67EE277AC7ED077A43E0C7
:1054A8003B6907EE903AF8EE677ADFED386A86EEE8
:1054B800A77A2F4B1B6BC3F3080307EE903AF8EE5D
:1054C800676A97ED026ADFED2E5AC6EE257A76EE08
:1054D800A77AF7EE006A77EEA67A67EE277AC7ED25
:1054E800077A21E03B6907EE903AF8EE677ADFED3C
:1054F800266A86EEA77A1E4B1B6BC3F3080307EEDA
:10550800903AF8EE676A97ED026ADFED1D5AC6EE2B
:10551800257A76EEA77AF7EE006A77EEA67A67EE36
:10552800277AC7ED077A00BF114B1B6B5B0A03F0A4
:105538007F0301333B603B6807EE903AB8EE677A29
:10554800D7ED076AC6EE877AFCEEE77A17EE903A4F
:10555800BB6105E00023BB6102E0074BBB6100BFF4
:10556800BB6918462437BD465DF8047B704700BF09
:10557800004402580090D00300093D0040787D01A6
:10558800000000460024744C0024744A20BCBE4B22
:105598002DE9B04FCAB000AFC7F81401002387F84F
:1055A8002731002387F82631D7F81431D3E90023AF
:1055B80002F00064002554EA050349D0D7F81431F5
:1055C8009B6EB3F5401F2FD0B3F5401F28D8B3F515
:1055D800001F1AD0B3F5001F22D8002B03D0B3F553
:1055E800801F07D01CE0B84BDB6AB74A43F400338E
:1055F800D3621AE0D7F8143108330221184601F0B3
:10560800D1F9034687F827310FE0D7F8143128334A
:105618000221184601F078FA034687F8273104E09A
:10562800012387F8273100E000BF97F82731002BC6
:105638000AD1A54B1B6D23F44011D7F814319B6E8A
:10564800A14A0B43136503E097F8273187F8263101
:10565800D7F81431D3E9002302F480784FF0000919
:1056680058EA090347D0D7F814319B6D042B2AD880
:1056780001A252F823F000BF95560008A35600086F
:10568800B9560008D7560008D75600088E4BDB6A73
:105698008D4A43F40033D3621AE0D7F81431083343
:1056A8000021184601F07EF9034687F827310FE0FC
:1056B800D7F8143128330021184601F025FA03469B
:1056C80087F8273104E0012387F8273100E000BF7D
:1056D80097F82731002B0AD17B4B1B6D23F007016C
:1056E800D7F814319B6D784A0B43136503E097F89C
:1056F800273187F82631D7F81431D3E9002302F48B
:10570800007A4FF0000B5AEA0B034CD0D7F814314B
:10571800DB6DB3F5807F30D0B3F5807F29D8C02BFF
:105728002DD0C02B25D8802B18D0802B21D8002B2A
:1057380002D0402B07D01CE0634BDB6A624A43F47B
:105748000033D3621CE0D7F814310833002118461F
:1057580001F028F9034687F8273111E0D7F814310A
:1057680028330021184601F0CFF9034687F827317E
:1057780006E0012387F8273102E000BF00E000BF00
:1057880097F82731002B0AD14F4B1B6D23F4E0719A
:10579800D7F81431DB6D4C4A0B43136503E097F8D7
:1057A800273187F82631D7F81431D3E9002302F4DA
:1057B8008063C7F808310023C7F80C31D7E94212D3
:1057C8000B46134353D0D7F81431D3F8A830B3F5A8
:1057D800000F35D0B3F5000F2ED8B3F5C00F31D078
:1057E800B3F5C00F28D8B3F5800F1AD0B3F5800FE2
:1057F80022D8002B03D0B3F5001F07D01CE0324B92
:10580800DB6A314A43F40033D3621CE0D7F8143121
:1058180008330021184601F0C5F8034687F82731F8
:1058280011E0D7F8143128330021184601F06CF93B
:10583800034687F8273106E0012387F8273102E07D
:1058480000BF00E000BF97F82731002B0BD11E4B9B
:105858009B6D23F46001D7F81431D3F8A8301A4AA5
:105868000B43936503E097F8273187F82631D7F87B
:105878001431D3E9002302F40063C7F80031002390
:10588800C7F80431D7E940120B46134356D0D7F86E
:105898001431D3F8AC30B3F1806F38D0B3F1806FE6
:1058A80031D8B3F1407F34D0B3F1407F2BD8B3F176
:1058B800007F1DD0B3F1007F25D8002B06D0B3F1AF
:1058C800807F0AD01FE000BF00440258A24BDB6A69
:1058D800A14A43F40033D3621CE0D7F814310833EB
:1058E8000021184601F05EF8034687F8273111E0D9
:1058F800D7F8143128330021184601F005F903467A
:1059080087F8273106E0012387F8273102E000BF36
:1059180000E000BF97F82731002B0BD18E4B9B6D11
:1059280023F0E061D7F81431D3F8AC308A4A0B433E
:10593800936503E097F8273187F82631D7F81431B3
:10594800D3E9002302F00073C7F8F8300023C7F842
:10595800FC30D7E93E120B4613433AD0D7F814313E
:10596800DB6C302B1FD0302B19D8202B0CD0202BE0
:1059780015D8002B19D0102B11D1774BDB6A764A3A
:1059880043F40033D36211E0D7F81431083302210D
:10599800184601F007F8034687F8273106E0012387
:1059A80087F8273102E000BF00E000BF97F82731F1
:1059B800002B0AD1684BDB6C23F03001D7F8143187
:1059C800DB6C654A0B43D36403E097F8273187F80B
:1059D8002631D7F81431D3E9002302F48053C7F8ED
:1059E800F0300023C7F8F430D7E93C120B461343D4
:1059F80051D0D7F814311B6EB3F5804F35D0B3F5BD
:105A0800804F2ED8B3F5405F31D0B3F5405F28D82A
:105A1800B3F5005F1AD0B3F5005F22D8002B03D08E
:105A2800B3F5805F07D01CE04B4BDB6A4A4A43F46E
:105A38000033D3621CE0D7F814310833002118462C
:105A480000F0B0FF034687F8273111E0D7F814318A
:105A580028330021184601F057F8034687F8273104
:105A680006E0012387F8273102E000BF00E000BF0D
:105A780097F82731002B0AD1374B1B6D23F4E041EF
:105A8800D7F814311B6E344A0B43136503E097F8BB
:105A9800273187F82631D7F81431D3E9002302F4E7
:105AA8000053C7F8E8300023C7F8EC30D7E93A12BA
:105AB8000B46134356D0D7F814315B6EB3F5A02FBD
:105AC80033D0B3F5A02F2CD8B3F5802F2FD0B3F552
